:100000000C9434000C9451000C9451000C94510049
:100010000C9451000C9451000C9451000C9431023A
:100020000C9451000C9451000C9451000C9451000C
:100030000C9451000C9451000C9451000C945100FC
:100040000C9451000C9451000C9451000C945100EC
:100050000C9451000C944D030C9451000C945100DD
:100060000C9451000C94510011241FBECFEFD8E026
:10007000DEBFCDBF11E0A0E0B1E0E2E1FCE002C0F4
:1000800005900D92A235B107D9F721E0A2E5B1E0C4
:1000900001C01D92AF3CB207E1F70E94E8010C9449
:1000A00007060C940000F89410927B00EAE7F0E059
:1000B0001082ACE7B0E08C9180648C938C9180626C
:1000C0008C93808185608083808180628083808141
:1000D0008860808380818068808380818064808361
:1000E00078940895ECE7F1E083E08083E081F0E02C
:1000F000EE0FFF1FE458FE4F0180F281E02D0995BD
:1001000008950E94950280910001811104C081E050
:1001100080937C0103C082E080937C01E0917C01AC
:10012000F0E0EE0FFF1FE458FE4F0180F281E02D5A
:10013000099508950E94100280E00E94B602ECE743
:10014000F1E083E08083E081F0E0EE0FFF1FE458F0
:10015000FE4F0180F281E02D0995089580E00E9414
:10016000FB02ECE7F1E084E08083E081F0E0EE0F59
:10017000FF1FE458FE4F0180F281E02D099508959C
:1001800081E00E94FB02ECE7F1E085E08083E08102
:10019000F0E0EE0FFF1FE458FE4F0180F281E02DEA
:1001A0000995089582E00E94FB02ECE7F1E086E009
:1001B0008083E081F0E0EE0FFF1FE458FE4F0180E6
:1001C000F281E02D0995089583E00E94FB02ECE79F
:1001D000F1E087E08083E081F0E0EE0FFF1FE4585C
:1001E000FE4F0180F281E02D0995089584E00E9480
:1001F000FB02ECE7F1E088E08083E081F0E0EE0FC5
:10020000FF1FE458FE4F0180F281E02D099508950B
:1002100085E00E94FB0281E080935201ECE7F1E06F
:100220001082E081F0E0EE0FFF1FE458FE4F0180E6
:10023000F281E02D099508950E94D30240E00E94CA
:10024000B702ECE7F1E084E08083E081F0E0EE0FBC
:10025000FF1FE458FE4F0180F281E02D09950895BB
:100260000E94D30241E00E94B702ECE7F1E085E092
:100270008083E081F0E0EE0FFF1FE458FE4F018025
:10028000F281E02D099508950E94D30242E00E9478
:10029000B702ECE7F1E086E08083E081F0E0EE0F6A
:1002A000FF1FE458FE4F0180F281E02D099508956B
:1002B0000E94D30243E00E94B702ECE7F1E087E03E
:1002C0008083E081F0E0EE0FFF1FE458FE4F0180D5
:1002D000F281E02D099508950E94D30244E00E9426
:1002E000B702ECE7F1E088E08083E081F0E0EE0F18
:1002F000FF1FE458FE4F0180F281E02D099508951B
:100300000E94D30245E00E94B70281E0809352012F
:10031000ECE7F1E01082E081F0E0EE0FFF1FE4581F
:10032000FE4F0180F281E02D09950895ECE7F1E0A0
:10033000108281E890E0928381838AE990E094833F
:10034000838382E790E09683858380910001811109
:1003500019C08EEA90E09087878380EC90E09287C6
:10036000818782ED90E09487838784EE90E0968782
:10037000858786EF90E0908B878788E091E0928B6D
:10038000818B1AC0ECE7F1E08CE191E090878783E4
:1003900080E391E09287818784E491E0948783876A
:1003A00088E591E0968785878CE691E0908B87873A
:1003B00080E891E0928B818BE0917C01F0E0EE0F80
:1003C000FF1FE458FE4F0180F281E02D099508954A
:1003D0008AB18C608AB9239A1B9AC1E009C02FE3C5
:1003E0008DE093E0215080409040E1F700C0000094
:1003F0001C9902C01D9BF3CF1C9B04C010920001EE
:100400004B9A03C0C09300014A9A80915201811116
:10041000EFCF0E949601809152018823D1F3E8CF5B
:10042000219A82E08093B0008093B1001092B200D4
:100430008FEF8093B300E0E7F0E0808182608083FB
:1004400078940895E0E7F0E020812D7F2083880FE5
:10045000991F9093040180930301808182608083BF
:1004600008951F920F920FB60F9211242F933F936E
:100470008F939F939091B300209155013091560135
:10048000892F90E00196820F931F909356018093DD
:100490005501809154018823D9F0809153018F5FD9
:1004A00080935301823019F48FEF8093B300209131
:1004B0005501309156018091010190910201281758
:1004C000390750F11998109254011092530124C029
:1004D000809155019091560180349C49E8F08091BB
:1004E0000301909104019093020180930101199AF4
:1004F00081E08093540110925601109255011092A0
:10050000530180910101909102019927939596954D
:10051000879581508093B3009F918F913F912F9148
:100520000F900FBE0F901F9018958091B50190E02D
:100530009C01220F331F820F931F880F991F880F72
:10054000991F880F991FFC01E75FFE4FA4E6B1E0F9
:100550008F5D9E4F41915191619171914D935D934A
:100560006D937D93E817F907A9F708950895E42F8F
:10057000F0E0EE0FFF1FEE0FFF1FEC59FE4F608300
:10058000718382839383089510925E0110925B01C0
:1005900010925D0110925C010895809163018111B8
:1005A0001092630108950E9453000E94CD02909121
:1005B000BA01809105018917A8F46091B601709184
:1005C000B70180E090E00E94E3049B01AC0160E091
:1005D0007EE386E197E40E947104562F472F382F5F
:1005E000292F04C050E040E030E020E0652F742F58
:1005F000832F922F08958F929F92AF92BF92CF92A6
:10060000DF92EF92FF920F931F93CF93DF93C0E09F
:10061000D0E024E0829FC00111248C010C591E4FB0
:1006200021960E94D3026B017C01CE010E9422021E
:10063000F80180809180A280B38026E636E646E607
:100640005FE3C501B4010E949A059B01AC01C7019B
:10065000B6010E94950588231CF72DEC3CEC4CE874
:100660005FE3C501B4010E949A059B01AC01C7017B
:10067000B6010E946C0418169CF681E08093570125
:10068000DF91CF911F910F91FF90EF90DF90CF906E
:10069000BF90AF909F908F9008951F920F920FB6CA
:1006A0000F9211242F933F934F935F936F937F93F8
:1006B0008F939F93AF93BF93CF93DF93EF93FF936A
:1006C0009091620190936101809179008093620121
:1006D0009F3708F0A8C08F3708F4A5C0282F30E056
:1006E000A901491B5109CA015093B4014093B301B8
:1006F00060915C0170915D012091080130E0FA0188
:10070000E61BF70BAF0122F4442755274E1B5F0B66
:10071000421753070CF06EC060915E01462F50E007
:10072000440F551FFA01E554FE4F91838083E091F9
:100730005F01F0916001DA01A156BE4FED93FC9389
:100740001092600110925F01611106C010925B016E
:1007500081E080935E0167C040919F015091A001AC
:100760004E1B5F0BDA01BB2324F4AA27BB27A41B73
:10077000B50B4091060150910701A417B50794F5F8
:100780004091BB015091BC01481B590BDA01BB23BE
:1007900024F4AA27BB27A41BB50BA217B30714F593
:1007A000AFE9B1E040E050E020E0CD91DD914C0FA9
:1007B0005D1F2F5F2613F9CF5093B9014093B80105
:1007C0005093B7014093B601F093A001E0939F01CD
:1007D0009093BC018093BB0181E080935E011092F5
:1007E0005B0121C06F5F60935E016A30E0F00E94A0
:1007F000C40219C0681779076CF490935D01809367
:100800005C011092600110925F0110925B011092E6
:100810005E0109C080915B018F5F80935B018A302C
:1008200010F00E94C40280916201811103C081E036
:100830008093630180915F01909160010196909394
:10084000600180935F018091590190915A01019656
:1008500090935A0180935901409179002FE730E03D
:10086000241B3109A90122F444275527421B530BAD
:100870002091580130E02417350774F44091790035
:100880002FE730E0241B3109A90122F44427552722
:10089000421B530B40935801883E934051F41092F1
:1008A0005A0110925901809158018093BA01109217
:1008B0005801FF91EF91DF91CF91BF91AF919F913F
:1008C0008F917F916F915F914F913F912F910F90F9
:1008D0000FBE0F901F9018950E94200508F481E02C
:1008E00008950E9485040C945B050E94540558F0FD
:1008F0000E944D0540F029F45F3F29F00C94440517
:1009000051110C948F050C944A050E946C0568F3F4
:100910009923B1F3552391F3951B550BBB27AA27B8
:1009200062177307840738F09F5F5F4F220F331FF2
:10093000441FAA1FA9F335D00E2E3AF0E0E832D0BA
:1009400091505040E695001CCAF72BD0FE2F29D0BD
:10095000660F771F881FBB1F261737074807AB078F
:10096000B0E809F0BB0B802DBF01FF2793585F4F04
:100970003AF09E3F510578F00C9444050C948F0595
:100980005F3FE4F3983ED4F3869577956795B795E6
:10099000F7959F5FC9F7880F911D9695879597F9F1
:1009A0000895E1E0660F771F881FBB1F621773076A
:1009B0008407BA0720F0621B730B840BBA0BEE1F7F
:1009C00088F7E0950895E89409C097FB3EF4909568
:1009D0008095709561957F4F8F4F9F4F9923A9F018
:1009E000F92F96E9BB279395F695879577956795A7
:1009F000B795F111F8CFFAF4BB0F11F460FF1BC0EB
:100A00006F5F7F4F8F4F9F4F16C0882311F096E97D
:100A100011C0772321F09EE8872F762F05C066232B
:100A200071F096E8862F70E060E02AF09A95660FE4
:100A3000771F881FDAF7880F9695879597F908959D
:100A4000990F0008550FAA0BE0E8FEEF16161706DF
:100A5000E807F907C0F012161306E407F50798F047
:100A6000621B730B840B950B39F40A2661F0232B60
:100A7000242B252B21F408950A2609F4A140A695DC
:100A80008FEF811D811D089597F99F6780E870E0C1
:100A900060E008959FEF80EC089500240A941616F4
:100AA000170618060906089500240A94121613065C
:100AB000140605060895092E0394000C11F48823EA
:100AC00052F0BB0F40F4BF2B11F460FF04C06F5F06
:100AD0007F4F8F4F9F4F089557FD9058440F551FDC
:100AE00059F05F3F71F04795880F97FB991F61F0B0
:100AF0009F3F79F087950895121613061406551F27
:100B0000F2CF4695F1DF08C0161617061806991F92
:100B1000F1CF86957105610508940895E894BB2787
:100B200066277727CB0197F908950E94200508F4DE
:100B30008FEF08950E94AD050C945B050E944D0552
:100B400038F00E94540520F0952311F00C944405D0
:100B50000C944A0511240C948F050E946C0570F3C7
:100B6000959FC1F3950F50E0551F629FF001729F52
:100B7000BB27F00DB11D639FAA27F00DB11DAA1F61
:100B8000649F6627B00DA11D661F829F2227B00DAE
:100B9000A11D621F739FB00DA11D621F839FA00D39
:100BA000611D221F749F3327A00D611D231F849F89
:100BB000600D211D822F762F6A2F11249F575040E0
:100BC0009AF0F1F088234AF0EE0FFF1FBB1F661F5B
:100BD000771F881F91505040A9F79E3F510580F024
:100BE0000C9444050C948F055F3FE4F3983ED4F3D6
:100BF000869577956795B795F795E7959F5FC1F7C8
:100C0000FE2B880F911D9695879597F90895F89476
:020C1000FFCF14
:100C120005B80BB80B1E0A0003A4D0A443A4F076B7
:100C220043000044437BD412430000DC42ECD1A4D5
:100C3200429A99214133332341CDCC244166662621
:100C420041000028419A992941CDCCA0419A99A10D
:100C5200416666A2413333A3410000A441CDCCA436
:020C620041004F
:00000001FF
