:100000000C9434000C9451000C9451000C94510049
:100010000C9451000C9451000C9451000C9451001C
:100020000C9451000C9451000C9451000C9451000C
:100030000C9451000C9451000C9451000C945100FC
:100040000C9451000C9451000C9451000C945100EC
:100050000C9451000C9499020C9451000C94510092
:100060000C9451000C94510011241FBECFEFD8E026
:10007000DEBFCDBF11E0A0E0B1E0EAEAFAE002C0E5
:1000800005900D92AE34B107D9F721E0AEE4B1E0AE
:1000900001C01D92A73CB207E1F70E94E6010C9453
:1000A00053050C940000F89410927B00EAE7F0E00E
:1000B0001082ACE7B0E08C9180648C938C9180626C
:1000C0008C93808185608083808180628083808141
:1000D0008860808380818068808380818064808361
:1000E00078940895E4E7F1E083E08083E081F0E034
:1000F000EE0FFF1FEC58FE4F0180F281E02D0995B5
:1001000008950E94F80180910001811104C081E0EE
:100110008093740103C082E080937401E0917401C4
:10012000F0E0EE0FFF1FEC58FE4F0180F281E02D52
:100130000995089582E00E941902E4E7F1E083E066
:100140008083E081F0E0EE0FFF1FEC58FE4F01804E
:10015000F281E02D0995089580E00E945202E4E7C3
:10016000F1E084E08083E081F0E0EE0FFF1FEC58C7
:10017000FE4F0180F281E02D0995089581E00E94F3
:100180005202E4E7F1E085E08083E081F0E0EE0FE9
:10019000FF1FEC58FE4F0180F281E02D0995089574
:1001A00082E00E945202E4E7F1E086E08083E08191
:1001B000F0E0EE0FFF1FEC58FE4F0180F281E02DC2
:1001C0000995089583E00E945202E4E7F1E087E098
:1001D0008083E081F0E0EE0FFF1FEC58FE4F0180BE
:1001E000F281E02D0995089584E00E945202E4E72F
:1001F000F1E088E08083E081F0E0EE0FFF1FEC5833
:10020000FE4F0180F281E02D0995089585E00E945E
:10021000520281E080934E01E4E7F1E01082E08138
:10022000F0E0EE0FFF1FEC58FE4F0180F281E02D51
:10023000099508950E94360240E00E941A02E4E700
:10024000F1E084E08083E081F0E0EE0FFF1FEC58E6
:10025000FE4F0180F281E02D099508950E9436023B
:1002600041E00E941A02E4E7F1E085E08083E0814A
:10027000F0E0EE0FFF1FEC58FE4F0180F281E02D01
:10028000099508950E94360242E00E941A02E4E7AE
:10029000F1E086E08083E081F0E0EE0FFF1FEC5894
:1002A000FE4F0180F281E02D099508950E943602EB
:1002B00043E00E941A02E4E7F1E087E08083E081F6
:1002C000F0E0EE0FFF1FEC58FE4F0180F281E02DB1
:1002D000099508950E94360244E00E941A02E4E75C
:1002E000F1E088E08083E081F0E0EE0FFF1FEC5842
:1002F000FE4F0180F281E02D099508950E9436029B
:1003000045E00E941A0281E080934E01E4E7F1E0AB
:100310001082E081F0E0EE0FFF1FEC58FE4F0180ED
:10032000F281E02D09950895E4E7F1E0108281E87B
:1003300090E0928381838AE990E09483838382E7CB
:1003400090E09683858380910001811119C08CEA29
:1003500090E0908787838EEB90E09287818780ED95
:1003600090E09487838782EE90E09687858784EF7C
:1003700090E0908B878786E091E0928B818B1AC00A
:10038000E4E7F1E08AE191E0908787838EE291E0F3
:100390009287818782E491E09487838786E591E064
:1003A000968785878AE691E0908B87878EE791E034
:1003B000928B818BE0917401F0E0EE0FFF1FEC58FF
:1003C000FE4F0180F281E02D099508951AB881E071
:1003D0008BB914B815B81092000180914E018111AB
:1003E000FACF0E94940180914E018823D1F3F3CF7C
:1003F0008091AD0190E09C01220F331F820F931F6B
:10040000880F991F880F991F880F991FFC01EB5FB8
:10041000FE4FACE5B1E0835E9E4F419151916191F9
:1004200071914D935D936D937D93E817F907A9F74B
:1004300008950895E42FF0E0EE0FFF1FEE0FFF1F69
:10044000E45AFE4F608371838283938308951092F0
:1004500056011092530110925501109254010895C3
:1004600080915B01811110925B0108950E945300FD
:100470000E9430029091B20180910101891788F4A5
:100480006091AE017091AF0180E090E00E942F0476
:100490009B01AC0160E07EE386E197E40E94BD032E
:1004A000089508958F929F92AF92BF92CF92DF925C
:1004B000EF92FF92CF93DF9324E0829FC00111243B
:1004C000EC01C45ADE4F0E9436026B017C01888029
:1004D0009980AA80BB8026E636E646E65FE3C50142
:1004E000B4010E94E6049B01AC01C701B6010E9461
:1004F000E104882344F72DEC3CEC4CE85FE3C501B4
:10050000B4010E94E6049B01AC01C701B6010E9440
:10051000B8031816C4F681E080934F01DF91CF91A4
:10052000FF90EF90DF90CF90BF90AF909F908F9013
:1005300008951F920F920FB60F9211242F933F939D
:100540004F935F936F937F938F939F93AF93BF93DB
:10055000CF93DF93EF93FF9390915A0190935901BA
:100560008091790080935A019F3708F0A8C08F3797
:1005700008F4A5C0282F30E0A901491B5109CA0180
:100580005093AC014093AB016091540170915501BF
:100590002091040130E0FA01E61BF70BAF0122F4D1
:1005A000442755274E1B5F0B421753070CF06EC0B4
:1005B00060915601462F50E0440F551FFA01ED544B
:1005C000FE4F91838083E0915701F0915801DA0149
:1005D000A956BE4FED93FC9310925801109257010B
:1005E000611106C01092530181E08093560167C0EB
:1005F00040919701509198014E1B5F0BDA01BB238C
:1006000024F4AA27BB27A41BB50B409102015091EB
:100610000301A417B50794F54091B3015091B401BB
:10062000481B590BDA01BB2324F4AA27BB27A41BC0
:10063000B50BA217B30714F5A7E9B1E040E050E00D
:1006400020E0CD91DD914C0F5D1F2F5F2613F9CF78
:100650005093B1014093B0015093AF014093AE016C
:10066000F0939801E09397019093B4018093B301C4
:1006700081E0809356011092530121C06F5F609317
:1006800056016A30E0F00E94270219C06817790706
:100690006CF490935501809354011092580110927C
:1006A0005701109253011092560109C080915301D5
:1006B0008F5F809353018A3010F00E94270280914F
:1006C0005A01811103C081E080935B018091570141
:1006D0009091580101969093580180935701809111
:1006E00051019091520101969093520180935101D2
:1006F000409179002FE730E0241B3109A90122F451
:1007000044275527421B530B2091500130E02417FA
:10071000350774F4409179002FE730E0241B31094C
:10072000A90122F444275527421B530B4093500143
:10073000883E934051F410925201109251018091E1
:1007400050018093B20110925001FF91EF91DF911F
:10075000CF91BF91AF919F918F917F916F915F9159
:100760004F913F912F910F900FBE0F901F901895B2
:100770000E946C0408F481E008950E94D1030C9457
:10078000A7040E94A00458F00E94990440F029F4A4
:100790005F3F29F00C94900451110C94DB040C94ED
:1007A00096040E94B80468F39923B1F3552391F39A
:1007B000951B550BBB27AA2762177307840738F0D0
:1007C0009F5F5F4F220F331F441FAA1FA9F335D02D
:1007D0000E2E3AF0E0E832D091505040E695001CE1
:1007E000CAF72BD0FE2F29D0660F771F881FBB1F9B
:1007F000261737074807AB07B0E809F0BB0B802D79
:10080000BF01FF2793585F4F3AF09E3F510578F0A4
:100810000C9490040C94DB045F3FE4F3983ED4F313
:10082000869577956795B795F7959F5FC9F7880F78
:10083000911D9695879597F90895E1E0660F771FCA
:10084000881FBB1F621773078407BA0720F0621B5B
:10085000730B840BBA0BEE1F88F7E0950895E894AC
:1008600009C097FB3EF490958095709561957F4FF8
:100870008F4F9F4F9923A9F0F92F96E9BB279395A6
:10088000F695879577956795B795F111F8CFFAF4B6
:10089000BB0F11F460FF1BC06F5F7F4F8F4F9F4FE7
:1008A00016C0882311F096E911C0772321F09EE845
:1008B000872F762F05C0662371F096E8862F70E0AB
:1008C00060E02AF09A95660F771F881FDAF7880F85
:1008D0009695879597F90895990F0008550FAA0BDB
:1008E000E0E8FEEF16161706E807F907C0F0121643
:1008F0001306E407F50798F0621B730B840B950B46
:1009000039F40A2661F0232B242B252B21F408959A
:100910000A2609F4A140A6958FEF811D811D089537
:1009200097F99F6780E870E060E008959FEF80ECA2
:10093000089500240A941616170618060906089545
:1009400000240A9412161306140605060895092EAB
:100950000394000C11F4882352F0BB0F40F4BF2B1A
:1009600011F460FF04C06F5F7F4F8F4F9F4F08955A
:1009700057FD9058440F551F59F05F3F71F0479550
:10098000880F97FB991F61F09F3F79F08795089535
:10099000121613061406551FF2CF4695F1DF08C054
:1009A000161617061806991FF1CF86957105610571
:1009B00008940895E894BB2766277727CB0197F919
:1009C00008950E946C0408F48FEF08950E94F904C2
:1009D0000C94A7040E94990438F00E94A00420F00F
:1009E000952311F00C9490040C94960411240C940B
:1009F000DB040E94B80470F3959FC1F3950F50E09B
:100A0000551F629FF001729FBB27F00DB11D639FC0
:100A1000AA27F00DB11DAA1F649F6627B00DA11D66
:100A2000661F829F2227B00DA11D621F739FB00D0C
:100A3000A11D621F839FA00D611D221F749F33277C
:100A4000A00D611D231F849F600D211D822F762F15
:100A50006A2F11249F5750409AF0F1F088234AF0F2
:100A6000EE0FFF1FBB1F661F771F881F915050405E
:100A7000A9F79E3F510580F00C9490040C94DB0480
:100A80005F3FE4F3983ED4F3869577956795B795E5
:100A9000F795E7959F5FC1F7FE2B880F911D9695FF
:0A0AA000879597F90895F894FFCFA9
:100AAA00051E0A0003A4D0A443A4F0764300004420
:100ABA00437BD412430000DC42ECD1A4429A992130
:100ACA004133332341CDCC244166662641000028B8
:100ADA00419A992941CDCCA0419A99A1416666A231
:0E0AEA00413333A3410000A441CDCCA4410010
:00000001FF
